{
  "transactions": [
    {
      "hash": "0x0aa62113c120e64e0656866853fc10c5870e3612baf7501e30449a70f2c88942",
      "transactionType": "CALL",
      "contractName": null,
      "contractAddress": "0x9d29d33d4329640e96cc259e141838eb3eb2f1d9",
      "function": "transfer(address,uint256)",
      "arguments": [
        "0x5b73C5498c1E3b4dbA84de0F1833c4a029d90519",
        "10000"
      ],
      "transaction": {
        "from": "0x3964d0011eb003488ab59b1ce0c235baa3998bdd",
        "to": "0x9d29d33d4329640e96cc259e141838eb3eb2f1d9",
        "gas": "0xd1d5",
        "value": "0x0",
        "input": "0xa9059cbb0000000000000000000000005b73c5498c1e3b4dba84de0f1833c4a029d905190000000000000000000000000000000000000000000000000000000000002710",
        "nonce": "0xe2",
        "chainId": "0xaa36a7"
      },
      "additionalContracts": [],
      "isFixedGasLimit": false
    },
    {
      "hash": "0x1c5f035f67a0ceeafe11f80382ba8cd6b2473c90ab9bf9a054bc584101191345",
      "transactionType": "CALL",
      "contractName": null,
      "contractAddress": "0x9d29d33d4329640e96cc259e141838eb3eb2f1d9",
      "function": "transfer(address,uint256)",
      "arguments": [
        "0x3964D0011EB003488Ab59B1ce0C235baA3998bdd",
        "1"
      ],
      "transaction": {
        "from": "0x3964d0011eb003488ab59b1ce0c235baa3998bdd",
        "to": "0x9d29d33d4329640e96cc259e141838eb3eb2f1d9",
        "gas": "0x9d1a",
        "value": "0x0",
        "input": "0xa9059cbb0000000000000000000000003964d0011eb003488ab59b1ce0c235baa3998bdd0000000000000000000000000000000000000000000000000000000000000001",
        "nonce": "0xe3",
        "chainId": "0xaa36a7"
      },
      "additionalContracts": [],
      "isFixedGasLimit": false
    },
    {
      "hash": "0x02e12bd0eb16bf8b928a7380177a0fdd03549a1953c3ba51dc7e9d8824798057",
      "transactionType": "CALL",
      "contractName": null,
      "contractAddress": "0x9d29d33d4329640e96cc259e141838eb3eb2f1d9",
      "function": null,
      "arguments": null,
      "transaction": {
        "from": "0x3964d0011eb003488ab59b1ce0c235baa3998bdd",
        "to": "0x9d29d33d4329640e96cc259e141838eb3eb2f1d9",
        "gas": "0x958a",
        "value": "0x38d7ea4c68000",
        "input": "0x",
        "nonce": "0xe4",
        "chainId": "0xaa36a7"
      },
      "additionalContracts": [],
      "isFixedGasLimit": false
    }
  ],
  "receipts": [
    {
      "status": "0x1",
      "cumulativeGasUsed": "0xb13edb",
      "logs": [],
      "logsBloom": "0x00000000000000000000000000000000000000000000000000000000000000000000000000000000000000000000000000000000000000000000000000000000000000000000000000000000000000000000000000000000000000000000000000000000000000000000000000000000000000000000000000000000000000000000000000000000000000000000000000000000000000000000000000000000000000000000000000000000000000000000000000000000000000000000000000000000000000000000000000000000000000000000000000000000000000000000000000000000000000000000000000000000000000000000000000000000",
      "type": "0x2",
      "transactionHash": "0x0aa62113c120e64e0656866853fc10c5870e3612baf7501e30449a70f2c88942",
      "transactionIndex": "0x79",
      "blockHash": "0x9e0d574afd9b26b4b6ebd172040ccfd561e45833cea84f5a7a2291692de8bfc8",
      "blockNumber": "0x60fb34",
      "gasUsed": "0x8f7a",
      "effectiveGasPrice": "0x5f1ae0cae",
      "from": "0x3964d0011eb003488ab59b1ce0c235baa3998bdd",
      "to": "0x9d29d33d4329640e96cc259e141838eb3eb2f1d9",
      "contractAddress": null
    },
    {
      "status": "0x1",
      "cumulativeGasUsed": "0xb1b099",
      "logs": [],
      "logsBloom": "0x00000000000000000000000000000000000000000000000000000000000000000000000000000000000000000000000000000000000000000000000000000000000000000000000000000000000000000000000000000000000000000000000000000000000000000000000000000000000000000000000000000000000000000000000000000000000000000000000000000000000000000000000000000000000000000000000000000000000000000000000000000000000000000000000000000000000000000000000000000000000000000000000000000000000000000000000000000000000000000000000000000000000000000000000000000000",
      "type": "0x2",
      "transactionHash": "0x1c5f035f67a0ceeafe11f80382ba8cd6b2473c90ab9bf9a054bc584101191345",
      "transactionIndex": "0x7a",
      "blockHash": "0x9e0d574afd9b26b4b6ebd172040ccfd561e45833cea84f5a7a2291692de8bfc8",
      "blockNumber": "0x60fb34",
      "gasUsed": "0x71be",
      "effectiveGasPrice": "0x5f1ae0cae",
      "from": "0x3964d0011eb003488ab59b1ce0c235baa3998bdd",
      "to": "0x9d29d33d4329640e96cc259e141838eb3eb2f1d9",
      "contractAddress": null
    },
    {
      "status": "0x1",
      "cumulativeGasUsed": "0xb21cdd",
      "logs": [],
      "logsBloom": "0x00000000000000000000000000000000000000000000000000000000000000000000000000000000000000000000000000000000000000000000000000000000000000000000000000000000000000000000000000000000000000000000000000000000000000000000000000000000000000000000000000000000000000000000000000000000000000000000000000000000000000000000000000000000000000000000000000000000000000000000000000000000000000000000000000000000000000000000000000000000000000000000000000000000000000000000000000000000000000000000000000000000000000000000000000000000",
      "type": "0x2",
      "transactionHash": "0x02e12bd0eb16bf8b928a7380177a0fdd03549a1953c3ba51dc7e9d8824798057",
      "transactionIndex": "0x7b",
      "blockHash": "0x9e0d574afd9b26b4b6ebd172040ccfd561e45833cea84f5a7a2291692de8bfc8",
      "blockNumber": "0x60fb34",
      "gasUsed": "0x6c44",
      "effectiveGasPrice": "0x5f1ae0cae",
      "from": "0x3964d0011eb003488ab59b1ce0c235baa3998bdd",
      "to": "0x9d29d33d4329640e96cc259e141838eb3eb2f1d9",
      "contractAddress": null
    }
  ],
  "libraries": [],
  "pending": [],
  "returns": {},
  "timestamp": 1721645869,
  "chain": 11155111,
  "commit": "d9103e9"
}