{
  "transactions": [
    {
      "hash": "0xda27895ffc291b98e0686512d1c545c7fff063e57d9a699fbd4f05fe51584c3a",
      "transactionType": "CREATE",
      "contractName": "FakeBuilding",
      "contractAddress": "0x13e95fbb70b5000ee26a05667d30b5b126ee96a4",
      "function": null,
      "arguments": [
        "0x9D29D33d4329640e96cC259E141838EB3EB2f1d9",
        "0x3964D0011EB003488Ab59B1ce0C235baA3998bdd"
      ],
      "transaction": {
        "from": "0x3964d0011eb003488ab59b1ce0c235baa3998bdd",
        "gas": "0x3fd67",
        "value": "0x0",
        "input": "0x60806040526000805460ff60a01b1916600160a01b17905534801561002357600080fd5b506040516102603803806102608339818101604052604081101561004657600080fd5b508051602090910151600080546001600160a01b039384166001600160a01b031991821617909155600180549390921692169190911790556101d38061008d6000396000f3fe608060405234801561001057600080fd5b50600436106100575760003560e01c806340a3d2461461005c57806348eb76ee146100785780635f9a4bca1461009c57806389862c20146100b9578063aa65c649146100c1575b600080fd5b6100646100e0565b604080519115158252519081900360200190f35b6100806100f0565b604080516001600160a01b039092168252519081900360200190f35b610064600480360360208110156100b257600080fd5b50356100ff565b61008061012b565b6100de600480360360208110156100d757600080fd5b503561013a565b005b600054600160a01b900460ff1681565b6001546001600160a01b031681565b6000805460ff600160a01b808304821615810260ff60a01b199093169290921792839055910416919050565b6000546001600160a01b031681565b6000805460408051633b669c4d60e21b81526004810185905290516001600160a01b039092169263ed9a71349260248084019382900301818387803b15801561018257600080fd5b505af1158015610196573d6000803e3d6000fd5b505050505056fea2646970667358221220d95de7c9a4c64ddac34776babd210235ab2ada6162d91a7a61a8f295d7a8a44264736f6c634300070000330000000000000000000000009d29d33d4329640e96cc259e141838eb3eb2f1d90000000000000000000000003964d0011eb003488ab59b1ce0c235baa3998bdd",
        "nonce": "0xd5",
        "chainId": "0xaa36a7"
      },
      "additionalContracts": [],
      "isFixedGasLimit": false
    },
    {
      "hash": "0x750861d13a8edcf3003007268b3601dc2fc3f6233c9c9bf997111f8d62180d2e",
      "transactionType": "CALL",
      "contractName": null,
      "contractAddress": "0x9d29d33d4329640e96cc259e141838eb3eb2f1d9",
      "function": "contribute()",
      "arguments": [],
      "transaction": {
        "from": "0x3964d0011eb003488ab59b1ce0c235baa3998bdd",
        "to": "0x9d29d33d4329640e96cc259e141838eb3eb2f1d9",
        "gas": "0xbb37",
        "value": "0x3328b944c4000",
        "input": "0xd7bb99ba",
        "nonce": "0xd6",
        "chainId": "0xaa36a7"
      },
      "additionalContracts": [],
      "isFixedGasLimit": false
    },
    {
      "hash": "0x20b40525a12ceaead71697d5da6b9890beffa620e86873f0da26ab0456900425",
      "transactionType": "CALL",
      "contractName": null,
      "contractAddress": "0x9d29d33d4329640e96cc259e141838eb3eb2f1d9",
      "function": "contribute()",
      "arguments": [],
      "transaction": {
        "from": "0x3964d0011eb003488ab59b1ce0c235baa3998bdd",
        "to": "0x9d29d33d4329640e96cc259e141838eb3eb2f1d9",
        "gas": "0xbb37",
        "value": "0x5af3107a4000",
        "input": "0xd7bb99ba",
        "nonce": "0xd7",
        "chainId": "0xaa36a7"
      },
      "additionalContracts": [],
      "isFixedGasLimit": false
    },
    {
      "hash": "0x1021ab7885eb72210281d01f9bb88bf12b039d9189b8b6adecf8a47a86a894cc",
      "transactionType": "CALL",
      "contractName": "FakeBuilding",
      "contractAddress": "0x13e95fbb70b5000ee26a05667d30b5b126ee96a4",
      "function": "isLastFloor(uint256)",
      "arguments": [
        "1"
      ],
      "transaction": {
        "from": "0x3964d0011eb003488ab59b1ce0c235baa3998bdd",
        "to": "0x13e95fbb70b5000ee26a05667d30b5b126ee96a4",
        "gas": "0x8f5e",
        "value": "0x0",
        "input": "0x5f9a4bca0000000000000000000000000000000000000000000000000000000000000001",
        "nonce": "0xd8",
        "chainId": "0xaa36a7"
      },
      "additionalContracts": [],
      "isFixedGasLimit": false
    },
    {
      "hash": "0xde7fab54754fa4b560fa80d57a8c53e1d69aa8bc3a35f07aa260e0f4904ecaaf",
      "transactionType": "CALL",
      "contractName": "FakeBuilding",
      "contractAddress": "0x13e95fbb70b5000ee26a05667d30b5b126ee96a4",
      "function": "exploitGoTo(uint256)",
      "arguments": [
        "1"
      ],
      "transaction": {
        "from": "0x3964d0011eb003488ab59b1ce0c235baa3998bdd",
        "to": "0x13e95fbb70b5000ee26a05667d30b5b126ee96a4",
        "gas": "0xb018",
        "value": "0x0",
        "input": "0xaa65c6490000000000000000000000000000000000000000000000000000000000000001",
        "nonce": "0xd9",
        "chainId": "0xaa36a7"
      },
      "additionalContracts": [],
      "isFixedGasLimit": false
    },
    {
      "hash": "0x0e5e0313a46a0f135345e18fd4c7cdd4e5c3028289016fb08be3e07566dca566",
      "transactionType": "CALL",
      "contractName": "FakeBuilding",
      "contractAddress": "0x13e95fbb70b5000ee26a05667d30b5b126ee96a4",
      "function": "exploitGoTo(uint256)",
      "arguments": [
        "6"
      ],
      "transaction": {
        "from": "0x3964d0011eb003488ab59b1ce0c235baa3998bdd",
        "to": "0x13e95fbb70b5000ee26a05667d30b5b126ee96a4",
        "gas": "0xd7b9",
        "value": "0x0",
        "input": "0xaa65c6490000000000000000000000000000000000000000000000000000000000000006",
        "nonce": "0xda",
        "chainId": "0xaa36a7"
      },
      "additionalContracts": [],
      "isFixedGasLimit": false
    },
    {
      "hash": "0xea0d315b6be2208a809c03d654f6321fa0169b24717a0a65b3547a585a771585",
      "transactionType": "CALL",
      "contractName": null,
      "contractAddress": "0x9d29d33d4329640e96cc259e141838eb3eb2f1d9",
      "function": "sendKey(bytes16)",
      "arguments": [
        "0x4cded594c37730434fcf53dd25e29ab500000000000000000000000000000000"
      ],
      "transaction": {
        "from": "0x3964d0011eb003488ab59b1ce0c235baa3998bdd",
        "to": "0x9d29d33d4329640e96cc259e141838eb3eb2f1d9",
        "gas": "0x12186",
        "value": "0x0",
        "input": "0x9d3ad91a4cded594c37730434fcf53dd25e29ab500000000000000000000000000000000",
        "nonce": "0xdb",
        "chainId": "0xaa36a7"
      },
      "additionalContracts": [],
      "isFixedGasLimit": false
    },
    {
      "hash": "0xd128a2c9e72a198825a5f5b11cc0488c78fe60f9f701553877591f248677ba72",
      "transactionType": "CALL",
      "contractName": null,
      "contractAddress": "0x9d29d33d4329640e96cc259e141838eb3eb2f1d9",
      "function": "sendPassword(bytes32)",
      "arguments": [
        "0xde241fe7f783f2ed343248c0762dade0cf4eea6ed49dfe2f9f1267483c9eade8"
      ],
      "transaction": {
        "from": "0x3964d0011eb003488ab59b1ce0c235baa3998bdd",
        "to": "0x9d29d33d4329640e96cc259e141838eb3eb2f1d9",
        "gas": "0x9914",
        "value": "0x0",
        "input": "0x5c8d2c38de241fe7f783f2ed343248c0762dade0cf4eea6ed49dfe2f9f1267483c9eade8",
        "nonce": "0xdc",
        "chainId": "0xaa36a7"
      },
      "additionalContracts": [],
      "isFixedGasLimit": false
    },
    {
      "hash": "0xa1b55374f8fd7e3b86c10807763712d591ef58b776439e63db2f68f9d814218d",
      "transactionType": "CALL",
      "contractName": null,
      "contractAddress": "0x9d29d33d4329640e96cc259e141838eb3eb2f1d9",
      "function": "transfer(address,uint256)",
      "arguments": [
        "0x5b73C5498c1E3b4dbA84de0F1833c4a029d90519",
        "10000"
      ],
      "transaction": {
        "from": "0x3964d0011eb003488ab59b1ce0c235baa3998bdd",
        "to": "0x9d29d33d4329640e96cc259e141838eb3eb2f1d9",
        "gas": "0xd1d5",
        "value": "0x0",
        "input": "0xa9059cbb0000000000000000000000005b73c5498c1e3b4dba84de0f1833c4a029d905190000000000000000000000000000000000000000000000000000000000002710",
        "nonce": "0xdd",
        "chainId": "0xaa36a7"
      },
      "additionalContracts": [],
      "isFixedGasLimit": false
    },
    {
      "hash": "0x9d621d199cf580481e0ba9644bde02c8e6f38dd68fca1bc744d5a83a18cd3103",
      "transactionType": "CALL",
      "contractName": null,
      "contractAddress": "0x9d29d33d4329640e96cc259e141838eb3eb2f1d9",
      "function": "transfer(address,uint256)",
      "arguments": [
        "0x3964D0011EB003488Ab59B1ce0C235baA3998bdd",
        "1"
      ],
      "transaction": {
        "from": "0x3964d0011eb003488ab59b1ce0c235baa3998bdd",
        "to": "0x9d29d33d4329640e96cc259e141838eb3eb2f1d9",
        "gas": "0x9d1a",
        "value": "0x0",
        "input": "0xa9059cbb0000000000000000000000003964d0011eb003488ab59b1ce0c235baa3998bdd0000000000000000000000000000000000000000000000000000000000000001",
        "nonce": "0xde",
        "chainId": "0xaa36a7"
      },
      "additionalContracts": [],
      "isFixedGasLimit": false
    },
    {
      "hash": "0xa43a5ecf4f52cb90c93e7b7a8bb828a3de081d1ccd28f8de28f5e3957709aea8",
      "transactionType": "CALL",
      "contractName": null,
      "contractAddress": "0x9d29d33d4329640e96cc259e141838eb3eb2f1d9",
      "function": null,
      "arguments": null,
      "transaction": {
        "from": "0x3964d0011eb003488ab59b1ce0c235baa3998bdd",
        "to": "0x9d29d33d4329640e96cc259e141838eb3eb2f1d9",
        "gas": "0x958a",
        "value": "0x38d7ea4c68000",
        "input": "0x",
        "nonce": "0xdf",
        "chainId": "0xaa36a7"
      },
      "additionalContracts": [],
      "isFixedGasLimit": false
    }
  ],
  "receipts": [
    {
      "status": "0x1",
      "cumulativeGasUsed": "0x1283af1",
      "logs": [],
      "logsBloom": "0x00000000000000000000000000000000000000000000000000000000000000000000000000000000000000000000000000000000000000000000000000000000000000000000000000000000000000000000000000000000000000000000000000000000000000000000000000000000000000000000000000000000000000000000000000000000000000000000000000000000000000000000000000000000000000000000000000000000000000000000000000000000000000000000000000000000000000000000000000000000000000000000000000000000000000000000000000000000000000000000000000000000000000000000000000000000",
      "type": "0x2",
      "transactionHash": "0xda27895ffc291b98e0686512d1c545c7fff063e57d9a699fbd4f05fe51584c3a",
      "transactionIndex": "0x62",
      "blockHash": "0x38eec35711b9cae54e85fe9dec8b2cdcac57a3932f0c440751a61d4c8cdb0916",
      "blockNumber": "0x60fafa",
      "gasUsed": "0x311dc",
      "effectiveGasPrice": "0x6a990eb88",
      "from": "0x3964d0011eb003488ab59b1ce0c235baa3998bdd",
      "to": null,
      "contractAddress": "0x13e95fbb70b5000ee26a05667d30b5b126ee96a4"
    },
    {
      "status": "0x1",
      "cumulativeGasUsed": "0x128baf4",
      "logs": [],
      "logsBloom": "0x00000000000000000000000000000000000000000000000000000000000000000000000000000000000000000000000000000000000000000000000000000000000000000000000000000000000000000000000000000000000000000000000000000000000000000000000000000000000000000000000000000000000000000000000000000000000000000000000000000000000000000000000000000000000000000000000000000000000000000000000000000000000000000000000000000000000000000000000000000000000000000000000000000000000000000000000000000000000000000000000000000000000000000000000000000000",
      "type": "0x2",
      "transactionHash": "0x750861d13a8edcf3003007268b3601dc2fc3f6233c9c9bf997111f8d62180d2e",
      "transactionIndex": "0x63",
      "blockHash": "0x38eec35711b9cae54e85fe9dec8b2cdcac57a3932f0c440751a61d4c8cdb0916",
      "blockNumber": "0x60fafa",
      "gasUsed": "0x8003",
      "effectiveGasPrice": "0x6a990eb88",
      "from": "0x3964d0011eb003488ab59b1ce0c235baa3998bdd",
      "to": "0x9d29d33d4329640e96cc259e141838eb3eb2f1d9",
      "contractAddress": null
    },
    {
      "status": "0x1",
      "cumulativeGasUsed": "0x1293af7",
      "logs": [],
      "logsBloom": "0x00000000000000000000000000000000000000000000000000000000000000000000000000000000000000000000000000000000000000000000000000000000000000000000000000000000000000000000000000000000000000000000000000000000000000000000000000000000000000000000000000000000000000000000000000000000000000000000000000000000000000000000000000000000000000000000000000000000000000000000000000000000000000000000000000000000000000000000000000000000000000000000000000000000000000000000000000000000000000000000000000000000000000000000000000000000",
      "type": "0x2",
      "transactionHash": "0x20b40525a12ceaead71697d5da6b9890beffa620e86873f0da26ab0456900425",
      "transactionIndex": "0x64",
      "blockHash": "0x38eec35711b9cae54e85fe9dec8b2cdcac57a3932f0c440751a61d4c8cdb0916",
      "blockNumber": "0x60fafa",
      "gasUsed": "0x8003",
      "effectiveGasPrice": "0x6a990eb88",
      "from": "0x3964d0011eb003488ab59b1ce0c235baa3998bdd",
      "to": "0x9d29d33d4329640e96cc259e141838eb3eb2f1d9",
      "contractAddress": null
    },
    {
      "status": "0x1",
      "cumulativeGasUsed": "0x129a2c4",
      "logs": [],
      "logsBloom": "0x00000000000000000000000000000000000000000000000000000000000000000000000000000000000000000000000000000000000000000000000000000000000000000000000000000000000000000000000000000000000000000000000000000000000000000000000000000000000000000000000000000000000000000000000000000000000000000000000000000000000000000000000000000000000000000000000000000000000000000000000000000000000000000000000000000000000000000000000000000000000000000000000000000000000000000000000000000000000000000000000000000000000000000000000000000000",
      "type": "0x2",
      "transactionHash": "0x1021ab7885eb72210281d01f9bb88bf12b039d9189b8b6adecf8a47a86a894cc",
      "transactionIndex": "0x65",
      "blockHash": "0x38eec35711b9cae54e85fe9dec8b2cdcac57a3932f0c440751a61d4c8cdb0916",
      "blockNumber": "0x60fafa",
      "gasUsed": "0x67cd",
      "effectiveGasPrice": "0x6a990eb88",
      "from": "0x3964d0011eb003488ab59b1ce0c235baa3998bdd",
      "to": "0x13e95fbb70b5000ee26a05667d30b5b126ee96a4",
      "contractAddress": null
    },
    {
      "status": "0x1",
      "cumulativeGasUsed": "0x12a2242",
      "logs": [],
      "logsBloom": "0x00000000000000000000000000000000000000000000000000000000000000000000000000000000000000000000000000000000000000000000000000000000000000000000000000000000000000000000000000000000000000000000000000000000000000000000000000000000000000000000000000000000000000000000000000000000000000000000000000000000000000000000000000000000000000000000000000000000000000000000000000000000000000000000000000000000000000000000000000000000000000000000000000000000000000000000000000000000000000000000000000000000000000000000000000000000",
      "type": "0x2",
      "transactionHash": "0xde7fab54754fa4b560fa80d57a8c53e1d69aa8bc3a35f07aa260e0f4904ecaaf",
      "transactionIndex": "0x66",
      "blockHash": "0x38eec35711b9cae54e85fe9dec8b2cdcac57a3932f0c440751a61d4c8cdb0916",
      "blockNumber": "0x60fafa",
      "gasUsed": "0x7f7e",
      "effectiveGasPrice": "0x6a990eb88",
      "from": "0x3964d0011eb003488ab59b1ce0c235baa3998bdd",
      "to": "0x13e95fbb70b5000ee26a05667d30b5b126ee96a4",
      "contractAddress": null
    },
    {
      "status": "0x1",
      "cumulativeGasUsed": "0x12ab5c3",
      "logs": [],
      "logsBloom": "0x00000000000000000000000000000000000000000000000000000000000000000000000000000000000000000000000000000000000000000000000000000000000000000000000000000000000000000000000000000000000000000000000000000000000000000000000000000000000000000000000000000000000000000000000000000000000000000000000000000000000000000000000000000000000000000000000000000000000000000000000000000000000000000000000000000000000000000000000000000000000000000000000000000000000000000000000000000000000000000000000000000000000000000000000000000000",
      "type": "0x2",
      "transactionHash": "0x0e5e0313a46a0f135345e18fd4c7cdd4e5c3028289016fb08be3e07566dca566",
      "transactionIndex": "0x67",
      "blockHash": "0x38eec35711b9cae54e85fe9dec8b2cdcac57a3932f0c440751a61d4c8cdb0916",
      "blockNumber": "0x60fafa",
      "gasUsed": "0x9381",
      "effectiveGasPrice": "0x6a990eb88",
      "from": "0x3964d0011eb003488ab59b1ce0c235baa3998bdd",
      "to": "0x13e95fbb70b5000ee26a05667d30b5b126ee96a4",
      "contractAddress": null
    },
    {
      "status": "0x1",
      "cumulativeGasUsed": "0x12b8760",
      "logs": [],
      "logsBloom": "0x00000000000000000000000000000000000000000000000000000000000000000000000000000000000000000000000000000000000000000000000000000000000000000000000000000000000000000000000000000000000000000000000000000000000000000000000000000000000000000000000000000000000000000000000000000000000000000000000000000000000000000000000000000000000000000000000000000000000000000000000000000000000000000000000000000000000000000000000000000000000000000000000000000000000000000000000000000000000000000000000000000000000000000000000000000000",
      "type": "0x2",
      "transactionHash": "0xea0d315b6be2208a809c03d654f6321fa0169b24717a0a65b3547a585a771585",
      "transactionIndex": "0x68",
      "blockHash": "0x38eec35711b9cae54e85fe9dec8b2cdcac57a3932f0c440751a61d4c8cdb0916",
      "blockNumber": "0x60fafa",
      "gasUsed": "0xd19d",
      "effectiveGasPrice": "0x6a990eb88",
      "from": "0x3964d0011eb003488ab59b1ce0c235baa3998bdd",
      "to": "0x9d29d33d4329640e96cc259e141838eb3eb2f1d9",
      "contractAddress": null
    },
    {
      "status": "0x1",
      "cumulativeGasUsed": "0x12bf634",
      "logs": [],
      "logsBloom": "0x00000000000000000000000000000000000000000000000000000000000000000000000000000000000000000000000000000000000000000000000000000000000000000000000000000000000000000000000000000000000000000000000000000000000000000000000000000000000000000000000000000000000000000000000000000000000000000000000000000000000000000000000000000000000000000000000000000000000000000000000000000000000000000000000000000000000000000000000000000000000000000000000000000000000000000000000000000000000000000000000000000000000000000000000000000000",
      "type": "0x2",
      "transactionHash": "0xd128a2c9e72a198825a5f5b11cc0488c78fe60f9f701553877591f248677ba72",
      "transactionIndex": "0x69",
      "blockHash": "0x38eec35711b9cae54e85fe9dec8b2cdcac57a3932f0c440751a61d4c8cdb0916",
      "blockNumber": "0x60fafa",
      "gasUsed": "0x6ed4",
      "effectiveGasPrice": "0x6a990eb88",
      "from": "0x3964d0011eb003488ab59b1ce0c235baa3998bdd",
      "to": "0x9d29d33d4329640e96cc259e141838eb3eb2f1d9",
      "contractAddress": null
    },
    {
      "status": "0x1",
      "cumulativeGasUsed": "0x12c85ae",
      "logs": [],
      "logsBloom": "0x00000000000000000000000000000000000000000000000000000000000000000000000000000000000000000000000000000000000000000000000000000000000000000000000000000000000000000000000000000000000000000000000000000000000000000000000000000000000000000000000000000000000000000000000000000000000000000000000000000000000000000000000000000000000000000000000000000000000000000000000000000000000000000000000000000000000000000000000000000000000000000000000000000000000000000000000000000000000000000000000000000000000000000000000000000000",
      "type": "0x2",
      "transactionHash": "0xa1b55374f8fd7e3b86c10807763712d591ef58b776439e63db2f68f9d814218d",
      "transactionIndex": "0x6a",
      "blockHash": "0x38eec35711b9cae54e85fe9dec8b2cdcac57a3932f0c440751a61d4c8cdb0916",
      "blockNumber": "0x60fafa",
      "gasUsed": "0x8f7a",
      "effectiveGasPrice": "0x6a990eb88",
      "from": "0x3964d0011eb003488ab59b1ce0c235baa3998bdd",
      "to": "0x9d29d33d4329640e96cc259e141838eb3eb2f1d9",
      "contractAddress": null
    },
    {
      "status": "0x1",
      "cumulativeGasUsed": "0x12cf76c",
      "logs": [],
      "logsBloom": "0x00000000000000000000000000000000000000000000000000000000000000000000000000000000000000000000000000000000000000000000000000000000000000000000000000000000000000000000000000000000000000000000000000000000000000000000000000000000000000000000000000000000000000000000000000000000000000000000000000000000000000000000000000000000000000000000000000000000000000000000000000000000000000000000000000000000000000000000000000000000000000000000000000000000000000000000000000000000000000000000000000000000000000000000000000000000",
      "type": "0x2",
      "transactionHash": "0x9d621d199cf580481e0ba9644bde02c8e6f38dd68fca1bc744d5a83a18cd3103",
      "transactionIndex": "0x6b",
      "blockHash": "0x38eec35711b9cae54e85fe9dec8b2cdcac57a3932f0c440751a61d4c8cdb0916",
      "blockNumber": "0x60fafa",
      "gasUsed": "0x71be",
      "effectiveGasPrice": "0x6a990eb88",
      "from": "0x3964d0011eb003488ab59b1ce0c235baa3998bdd",
      "to": "0x9d29d33d4329640e96cc259e141838eb3eb2f1d9",
      "contractAddress": null
    },
    {
      "status": "0x1",
      "cumulativeGasUsed": "0x12d63b0",
      "logs": [],
      "logsBloom": "0x00000000000000000000000000000000000000000000000000000000000000000000000000000000000000000000000000000000000000000000000000000000000000000000000000000000000000000000000000000000000000000000000000000000000000000000000000000000000000000000000000000000000000000000000000000000000000000000000000000000000000000000000000000000000000000000000000000000000000000000000000000000000000000000000000000000000000000000000000000000000000000000000000000000000000000000000000000000000000000000000000000000000000000000000000000000",
      "type": "0x2",
      "transactionHash": "0xa43a5ecf4f52cb90c93e7b7a8bb828a3de081d1ccd28f8de28f5e3957709aea8",
      "transactionIndex": "0x6c",
      "blockHash": "0x38eec35711b9cae54e85fe9dec8b2cdcac57a3932f0c440751a61d4c8cdb0916",
      "blockNumber": "0x60fafa",
      "gasUsed": "0x6c44",
      "effectiveGasPrice": "0x6a990eb88",
      "from": "0x3964d0011eb003488ab59b1ce0c235baa3998bdd",
      "to": "0x9d29d33d4329640e96cc259e141838eb3eb2f1d9",
      "contractAddress": null
    }
  ],
  "libraries": [],
  "pending": [],
  "returns": {},
  "timestamp": 1721644951,
  "chain": 11155111,
  "commit": "d9103e9"
}