{
  "transactions": [
    {
      "hash": "0x7e7d144380cbc0a0cbe7fce17970f50d52d16cedd78abffe64b8c3eb6e5e4f4e",
      "transactionType": "CALL",
      "contractName": null,
      "contractAddress": "0x9d29d33d4329640e96cc259e141838eb3eb2f1d9",
      "function": "flip(bool)",
      "arguments": [
        "false"
      ],
      "transaction": {
        "from": "0x3964d0011eb003488ab59b1ce0c235baa3998bdd",
        "to": "0x9d29d33d4329640e96cc259e141838eb3eb2f1d9",
        "gas": "0x11efc",
        "value": "0x0",
        "input": "0x1d263f670000000000000000000000000000000000000000000000000000000000000000",
        "nonce": "0xcf",
        "chainId": "0xaa36a7"
      },
      "additionalContracts": [],
      "isFixedGasLimit": false
    }
  ],
  "receipts": [
    {
      "status": "0x1",
      "cumulativeGasUsed": "0xb9857b",
      "logs": [],
      "logsBloom": "0x00000000000000000000000000000000000000000000000000000000000000000000000000000000000000000000000000000000000000000000000000000000000000000000000000000000000000000000000000000000000000000000000000000000000000000000000000000000000000000000000000000000000000000000000000000000000000000000000000000000000000000000000000000000000000000000000000000000000000000000000000000000000000000000000000000000000000000000000000000000000000000000000000000000000000000000000000000000000000000000000000000000000000000000000000000000",
      "type": "0x2",
      "transactionHash": "0x7e7d144380cbc0a0cbe7fce17970f50d52d16cedd78abffe64b8c3eb6e5e4f4e",
      "transactionIndex": "0x68",
      "blockHash": "0x02f1965a54b8299c17960b7dc8d8f066211f30c55d0525a7a4cc51f3e2289961",
      "blockNumber": "0x60fad3",
      "gasUsed": "0xcfc6",
      "effectiveGasPrice": "0x54c5e3499",
      "from": "0x3964d0011eb003488ab59b1ce0c235baa3998bdd",
      "to": "0x9d29d33d4329640e96cc259e141838eb3eb2f1d9",
      "contractAddress": null
    }
  ],
  "libraries": [],
  "pending": [],
  "returns": {},
  "timestamp": 1721644323,
  "chain": 11155111,
  "commit": "d9103e9"
}