{
  "transactions": [
    {
      "hash": "0x431397423d4d5cad0934ec5ae6c6977e0f613e4761b23820699e6de72ffd2cf5",
      "transactionType": "CALL",
      "contractName": null,
      "contractAddress": "0x9d29d33d4329640e96cc259e141838eb3eb2f1d9",
      "function": "flip(bool)",
      "arguments": [
        "false"
      ],
      "transaction": {
        "from": "0x3964d0011eb003488ab59b1ce0c235baa3998bdd",
        "to": "0x9d29d33d4329640e96cc259e141838eb3eb2f1d9",
        "gas": "0xce2d",
        "value": "0x0",
        "input": "0x1d263f670000000000000000000000000000000000000000000000000000000000000000",
        "nonce": "0xe7",
        "chainId": "0xaa36a7"
      },
      "additionalContracts": [],
      "isFixedGasLimit": false
    }
  ],
  "receipts": [
    {
      "status": "0x1",
      "cumulativeGasUsed": "0x94a1ef",
      "logs": [],
      "logsBloom": "0x00000000000000000000000000000000000000000000000000000000000000000000000000000000000000000000000000000000000000000000000000000000000000000000000000000000000000000000000000000000000000000000000000000000000000000000000000000000000000000000000000000000000000000000000000000000000000000000000000000000000000000000000000000000000000000000000000000000000000000000000000000000000000000000000000000000000000000000000000000000000000000000000000000000000000000000000000000000000000000000000000000000000000000000000000000000",
      "type": "0x2",
      "transactionHash": "0x431397423d4d5cad0934ec5ae6c6977e0f613e4761b23820699e6de72ffd2cf5",
      "transactionIndex": "0x5b",
      "blockHash": "0x47e9dd3b4099569076301ec8bfc348571b913b01e96cfb5963566e3b173ad4d4",
      "blockNumber": "0x60fb4e",
      "gasUsed": "0x8cfa",
      "effectiveGasPrice": "0x5df763357",
      "from": "0x3964d0011eb003488ab59b1ce0c235baa3998bdd",
      "to": "0x9d29d33d4329640e96cc259e141838eb3eb2f1d9",
      "contractAddress": null
    }
  ],
  "libraries": [],
  "pending": [],
  "returns": {},
  "timestamp": 1721646294,
  "chain": 11155111,
  "commit": "d9103e9"
}